{
	"data": {
		"bytecode": {
			"linkReferences": {},
			"object": "60e06040527f7ed036d1648538aaeebd03ec215f889518bfb6bbe031261f81d80df70b8a915460c0908152503480156200003857600080fd5b506040518060400160405280600381526020017f52524200000000000000000000000000000000000000000000000000000000008152506040518060400160405280600181526020017f31000000000000000000000000000000000000000000000000000000000000008152506103e960008380519060200120905060008380519060200120905060007f8b73c3c69bb8fe3d512ecc4cf759cc79239f7b179b0ffacaa9a75d522b39400f90508360a0818152505080838386306040516020016200010895949392919062000164565b604051602081830303815290604052805190602001206080818152505050505050505062000209565b6200013c81620001c1565b82525050565b6200014d81620001d5565b82525050565b6200015e81620001ff565b82525050565b600060a0820190506200017b600083018862000142565b6200018a602083018762000142565b62000199604083018662000142565b620001a8606083018562000153565b620001b7608083018462000131565b9695505050505050565b6000620001ce82620001df565b9050919050565b6000819050919050565b600073ffffffffffffffffffffffffffffffffffffffff82169050919050565b6000819050919050565b60805160a05160c051610f9d62000235600039600060ba01526000505060006102e00152610f9d6000f3fe608060405234801561001057600080fd5b50600436106100365760003560e01c806393228d701461003b578063e7d41c5314610057575b600080fd5b6100556004803603810190610050919061079e565b610073565b005b610071600480360381019061006c919061085a565b6101ea565b005b844211156100b6576040517f08c379a00000000000000000000000000000000000000000000000000000000081526004016100ad90610b8e565b60405180910390fd5b60007f000000000000000000000000000000000000000000000000000000000000000088888888886040516020016100f396959493929190610a89565b6040516020818303038152906040528051906020012090506000610163610119836101fb565b85858080601f016020809104026020016040519081016040528093929190818152602001838380828437600081840152601f19601f82011690508083019250505050505050610215565b90508873ffffffffffffffffffffffffffffffffffffffff168173ffffffffffffffffffffffffffffffffffffffff16146101d3576040517f08c379a00000000000000000000000000000000000000000000000000000000081526004016101ca90610bee565b60405180910390fd5b6101df8989888861023c565b505050505050505050565b6101f63384848461023c565b505050565b600061020e6102086102dc565b83610304565b9050919050565b60008060006102248585610337565b91509150610231816103ba565b819250505092915050565b6102458461058f565b15610285576040517f08c379a000000000000000000000000000000000000000000000000000000000815260040161027c90610bce565b60405180910390fd5b828473ffffffffffffffffffffffffffffffffffffffff167f59517b44cc39b13e5e4ac25aec4ad6abc4a514fb5f15c477216d1ade07cef7c484846040516102ce929190610b2a565b60405180910390a350505050565b60007f0000000000000000000000000000000000000000000000000000000000000000905090565b60008282604051602001610319929190610a52565b60405160208183030381529060405280519060200120905092915050565b6000806041835114156103795760008060006020860151925060408601519150606086015160001a905061036d878285856105b2565b945094505050506103b3565b6040835114156103aa57600080602085015191506040850151905061039f8683836106bf565b9350935050506103b3565b60006002915091505b9250929050565b600060048111156103ce576103cd610d4c565b5b8160048111156103e1576103e0610d4c565b5b14156103ec5761058c565b60016004811115610400576103ff610d4c565b5b81600481111561041357610412610d4c565b5b1415610454576040517f08c379a000000000000000000000000000000000000000000000000000000000815260040161044b90610b4e565b60405180910390fd5b6002600481111561046857610467610d4c565b5b81600481111561047b5761047a610d4c565b5b14156104bc576040517f08c379a00000000000000000000000000000000000000000000000000000000081526004016104b390610b6e565b60405180910390fd5b600360048111156104d0576104cf610d4c565b5b8160048111156104e3576104e2610d4c565b5b1415610524576040517f08c379a000000000000000000000000000000000000000000000000000000000815260040161051b90610bae565b60405180910390fd5b60048081111561053757610536610d4c565b5b81600481111561054a57610549610d4c565b5b141561058b576040517f08c379a000000000000000000000000000000000000000000000000000000000815260040161058290610c0e565b60405180910390fd5b5b50565b6000808273ffffffffffffffffffffffffffffffffffffffff163b119050919050565b6000807f7fffffffffffffffffffffffffffffff5d576e7357a4501ddfe92f46681b20a08360001c11156105ed5760006003915091506106b6565b601b8560ff16141580156106055750601c8560ff1614155b156106175760006004915091506106b6565b60006001878787876040516000815260200160405260405161063c9493929190610ae5565b6020604051602081039080840390855afa15801561065e573d6000803e3d6000fd5b505050602060405103519050600073ffffffffffffffffffffffffffffffffffffffff168173ffffffffffffffffffffffffffffffffffffffff1614156106ad576000600192509250506106b6565b80600092509250505b94509492505050565b60008060007f7fffffffffffffffffffffffffffffffffffffffffffffffffffffffffffffff60001b841690506000601b60ff8660001c901c6107029190610c5b565b9050610710878288856105b2565b935093505050935093915050565b60008135905061072d81610f39565b92915050565b60008083601f84011261074957610748610d80565b5b8235905067ffffffffffffffff81111561076657610765610d7b565b5b60208301915083600182028301111561078257610781610d85565b5b9250929050565b60008135905061079881610f50565b92915050565b600080600080600080600060a0888a0312156107bd576107bc610d8f565b5b60006107cb8a828b0161071e565b97505060206107dc8a828b01610789565b96505060406107ed8a828b01610789565b955050606088013567ffffffffffffffff81111561080e5761080d610d8a565b5b61081a8a828b01610733565b9450945050608088013567ffffffffffffffff81111561083d5761083c610d8a565b5b6108498a828b01610733565b925092505092959891949750929550565b60008060006040848603121561087357610872610d8f565b5b600061088186828701610789565b935050602084013567ffffffffffffffff8111156108a2576108a1610d8a565b5b6108ae86828701610733565b92509250509250925092565b6108c381610cb1565b82525050565b6108d281610cc3565b82525050565b6108e96108e482610cc3565b610d13565b82525050565b60006108fb8385610c2e565b9350610908838584610d04565b61091183610d94565b840190509392505050565b6000610929601883610c3f565b915061093482610da5565b602082019050919050565b600061094c601f83610c3f565b915061095782610dce565b602082019050919050565b600061096f600c83610c3f565b915061097a82610df7565b602082019050919050565b6000610992600283610c50565b915061099d82610e20565b600282019050919050565b60006109b5602283610c3f565b91506109c082610e49565b604082019050919050565b60006109d8601283610c3f565b91506109e382610e98565b602082019050919050565b60006109fb600d83610c3f565b9150610a0682610ec1565b602082019050919050565b6000610a1e602283610c3f565b9150610a2982610eea565b604082019050919050565b610a3d81610ced565b82525050565b610a4c81610cf7565b82525050565b6000610a5d82610985565b9150610a6982856108d8565b602082019150610a7982846108d8565b6020820191508190509392505050565b600060a082019050610a9e60008301896108c9565b610aab60208301886108ba565b610ab86040830187610a34565b610ac56060830186610a34565b8181036080830152610ad88184866108ef565b9050979650505050505050565b6000608082019050610afa60008301876108c9565b610b076020830186610a43565b610b1460408301856108c9565b610b2160608301846108c9565b95945050505050565b60006020820190508181036000830152610b458184866108ef565b90509392505050565b60006020820190508181036000830152610b678161091c565b9050919050565b60006020820190508181036000830152610b878161093f565b9050919050565b60006020820190508181036000830152610ba781610962565b9050919050565b60006020820190508181036000830152610bc7816109a8565b9050919050565b60006020820190508181036000830152610be7816109cb565b9050919050565b60006020820190508181036000830152610c07816109ee565b9050919050565b60006020820190508181036000830152610c2781610a11565b9050919050565b600082825260208201905092915050565b600082825260208201905092915050565b600081905092915050565b6000610c6682610ced565b9150610c7183610ced565b9250827fffffffffffffffffffffffffffffffffffffffffffffffffffffffffffffffff03821115610ca657610ca5610d1d565b5b828201905092915050565b6000610cbc82610ccd565b9050919050565b6000819050919050565b600073ffffffffffffffffffffffffffffffffffffffff82169050919050565b6000819050919050565b600060ff82169050919050565b82818337600083830152505050565b6000819050919050565b7f4e487b7100000000000000000000000000000000000000000000000000000000600052601160045260246000fd5b7f4e487b7100000000000000000000000000000000000000000000000000000000600052602160045260246000fd5b600080fd5b600080fd5b600080fd5b600080fd5b600080fd5b6000601f19601f8301169050919050565b7f45434453413a20696e76616c6964207369676e61747572650000000000000000600082015250565b7f45434453413a20696e76616c6964207369676e6174757265206c656e67746800600082015250565b7f4558505f444541444c494e450000000000000000000000000000000000000000600082015250565b7f1901000000000000000000000000000000000000000000000000000000000000600082015250565b7f45434453413a20696e76616c6964207369676e6174757265202773272076616c60008201527f7565000000000000000000000000000000000000000000000000000000000000602082015250565b7f494e565f4e4f545f415f434f4e54524143540000000000000000000000000000600082015250565b7f494e565f5349474e415455524500000000000000000000000000000000000000600082015250565b7f45434453413a20696e76616c6964207369676e6174757265202776272076616c60008201527f7565000000000000000000000000000000000000000000000000000000000000602082015250565b610f4281610cb1565b8114610f4d57600080fd5b50565b610f5981610ced565b8114610f6457600080fd5b5056fea2646970667358221220dc26cc422054360ca75c26f544818024a7e4368cc7a7fc785c662cb55822285964736f6c63430008070033",
			"opcodes": "PUSH1 0xE0 PUSH1 0x40 MSTORE PUSH32 0x7ED036D1648538AAEEBD03EC215F889518BFB6BBE031261F81D80DF70B8A9154 PUSH1 0xC0 SWAP1 DUP2 MSTORE POP CALLVALUE DUP1 ISZERO PUSH3 0x38 JUMPI PUSH1 0x0 DUP1 REVERT JUMPDEST POP PUSH1 0x40 MLOAD DUP1 PUSH1 0x40 ADD PUSH1 0x40 MSTORE DUP1 PUSH1 0x3 DUP2 MSTORE PUSH1 0x20 ADD PUSH32 0x5252420000000000000000000000000000000000000000000000000000000000 DUP2 MSTORE POP PUSH1 0x40 MLOAD DUP1 PUSH1 0x40 ADD PUSH1 0x40 MSTORE DUP1 PUSH1 0x1 DUP2 MSTORE PUSH1 0x20 ADD PUSH32 0x3100000000000000000000000000000000000000000000000000000000000000 DUP2 MSTORE POP PUSH2 0x3E9 PUSH1 0x0 DUP4 DUP1 MLOAD SWAP1 PUSH1 0x20 ADD KECCAK256 SWAP1 POP PUSH1 0x0 DUP4 DUP1 MLOAD SWAP1 PUSH1 0x20 ADD KECCAK256 SWAP1 POP PUSH1 0x0 PUSH32 0x8B73C3C69BB8FE3D512ECC4CF759CC79239F7B179B0FFACAA9A75D522B39400F SWAP1 POP DUP4 PUSH1 0xA0 DUP2 DUP2 MSTORE POP POP DUP1 DUP4 DUP4 DUP7 ADDRESS PUSH1 0x40 MLOAD PUSH1 0x20 ADD PUSH3 0x108 SWAP6 SWAP5 SWAP4 SWAP3 SWAP2 SWAP1 PUSH3 0x164 JUMP JUMPDEST PUSH1 0x40 MLOAD PUSH1 0x20 DUP2 DUP4 SUB SUB DUP2 MSTORE SWAP1 PUSH1 0x40 MSTORE DUP1 MLOAD SWAP1 PUSH1 0x20 ADD KECCAK256 PUSH1 0x80 DUP2 DUP2 MSTORE POP POP POP POP POP POP POP POP PUSH3 0x209 JUMP JUMPDEST PUSH3 0x13C DUP2 PUSH3 0x1C1 JUMP JUMPDEST DUP3 MSTORE POP POP JUMP JUMPDEST PUSH3 0x14D DUP2 PUSH3 0x1D5 JUMP JUMPDEST DUP3 MSTORE POP POP JUMP JUMPDEST PUSH3 0x15E DUP2 PUSH3 0x1FF JUMP JUMPDEST DUP3 MSTORE POP POP JUMP JUMPDEST PUSH1 0x0 PUSH1 0xA0 DUP3 ADD SWAP1 POP PUSH3 0x17B PUSH1 0x0 DUP4 ADD DUP9 PUSH3 0x142 JUMP JUMPDEST PUSH3 0x18A PUSH1 0x20 DUP4 ADD DUP8 PUSH3 0x142 JUMP JUMPDEST PUSH3 0x199 PUSH1 0x40 DUP4 ADD DUP7 PUSH3 0x142 JUMP JUMPDEST PUSH3 0x1A8 PUSH1 0x60 DUP4 ADD DUP6 PUSH3 0x153 JUMP JUMPDEST PUSH3 0x1B7 PUSH1 0x80 DUP4 ADD DUP5 PUSH3 0x131 JUMP JUMPDEST SWAP7 SWAP6 POP POP POP POP POP POP JUMP JUMPDEST PUSH1 0x0 PUSH3 0x1CE DUP3 PUSH3 0x1DF JUMP JUMPDEST SWAP1 POP SWAP2 SWAP1 POP JUMP JUMPDEST PUSH1 0x0 DUP2 SWAP1 POP SWAP2 SWAP1 POP JUMP JUMPDEST PUSH1 0x0 PUSH20 0xFFFFFFFFFFFFFFFFFFFFFFFFFFFFFFFFFFFFFFFF DUP3 AND SWAP1 POP SWAP2 SWAP1 POP JUMP JUMPDEST PUSH1 0x0 DUP2 SWAP1 POP SWAP2 SWAP1 POP JUMP JUMPDEST PUSH1 0x80 MLOAD PUSH1 0xA0 MLOAD PUSH1 0xC0 MLOAD PUSH2 0xF9D PUSH3 0x235 PUSH1 0x0 CODECOPY PUSH1 0x0 PUSH1 0xBA ADD MSTORE PUSH1 0x0 POP POP PUSH1 0x0 PUSH2 0x2E0 ADD MSTORE PUSH2 0xF9D PUSH1 0x0 RETURN INVALID PUSH1 0x80 PUSH1 0x40 MSTORE CALLVALUE DUP1 ISZERO PUSH2 0x10 JUMPI PUSH1 0x0 DUP1 REVERT JUMPDEST POP PUSH1 0x4 CALLDATASIZE LT PUSH2 0x36 JUMPI PUSH1 0x0 CALLDATALOAD PUSH1 0xE0 SHR DUP1 PUSH4 0x93228D70 EQ PUSH2 0x3B JUMPI DUP1 PUSH4 0xE7D41C53 EQ PUSH2 0x57 JUMPI JUMPDEST PUSH1 0x0 DUP1 REVERT JUMPDEST PUSH2 0x55 PUSH1 0x4 DUP1 CALLDATASIZE SUB DUP2 ADD SWAP1 PUSH2 0x50 SWAP2 SWAP1 PUSH2 0x79E JUMP JUMPDEST PUSH2 0x73 JUMP JUMPDEST STOP JUMPDEST PUSH2 0x71 PUSH1 0x4 DUP1 CALLDATASIZE SUB DUP2 ADD SWAP1 PUSH2 0x6C SWAP2 SWAP1 PUSH2 0x85A JUMP JUMPDEST PUSH2 0x1EA JUMP JUMPDEST STOP JUMPDEST DUP5 TIMESTAMP GT ISZERO PUSH2 0xB6 JUMPI PUSH1 0x40 MLOAD PUSH32 0x8C379A000000000000000000000000000000000000000000000000000000000 DUP2 MSTORE PUSH1 0x4 ADD PUSH2 0xAD SWAP1 PUSH2 0xB8E JUMP JUMPDEST PUSH1 0x40 MLOAD DUP1 SWAP2 SUB SWAP1 REVERT JUMPDEST PUSH1 0x0 PUSH32 0x0 DUP9 DUP9 DUP9 DUP9 DUP9 PUSH1 0x40 MLOAD PUSH1 0x20 ADD PUSH2 0xF3 SWAP7 SWAP6 SWAP5 SWAP4 SWAP3 SWAP2 SWAP1 PUSH2 0xA89 JUMP JUMPDEST PUSH1 0x40 MLOAD PUSH1 0x20 DUP2 DUP4 SUB SUB DUP2 MSTORE SWAP1 PUSH1 0x40 MSTORE DUP1 MLOAD SWAP1 PUSH1 0x20 ADD KECCAK256 SWAP1 POP PUSH1 0x0 PUSH2 0x163 PUSH2 0x119 DUP4 PUSH2 0x1FB JUMP JUMPDEST DUP6 DUP6 DUP1 DUP1 PUSH1 0x1F ADD PUSH1 0x20 DUP1 SWAP2 DIV MUL PUSH1 0x20 ADD PUSH1 0x40 MLOAD SWAP1 DUP2 ADD PUSH1 0x40 MSTORE DUP1 SWAP4 SWAP3 SWAP2 SWAP1 DUP2 DUP2 MSTORE PUSH1 0x20 ADD DUP4 DUP4 DUP1 DUP3 DUP5 CALLDATACOPY PUSH1 0x0 DUP2 DUP5 ADD MSTORE PUSH1 0x1F NOT PUSH1 0x1F DUP3 ADD AND SWAP1 POP DUP1 DUP4 ADD SWAP3 POP POP POP POP POP POP POP PUSH2 0x215 JUMP JUMPDEST SWAP1 POP DUP9 PUSH20 0xFFFFFFFFFFFFFFFFFFFFFFFFFFFFFFFFFFFFFFFF AND DUP2 PUSH20 0xFFFFFFFFFFFFFFFFFFFFFFFFFFFFFFFFFFFFFFFF AND EQ PUSH2 0x1D3 JUMPI PUSH1 0x40 MLOAD PUSH32 0x8C379A000000000000000000000000000000000000000000000000000000000 DUP2 MSTORE PUSH1 0x4 ADD PUSH2 0x1CA SWAP1 PUSH2 0xBEE JUMP JUMPDEST PUSH1 0x40 MLOAD DUP1 SWAP2 SUB SWAP1 REVERT JUMPDEST PUSH2 0x1DF DUP10 DUP10 DUP9 DUP9 PUSH2 0x23C JUMP JUMPDEST POP POP POP POP POP POP POP POP POP JUMP JUMPDEST PUSH2 0x1F6 CALLER DUP5 DUP5 DUP5 PUSH2 0x23C JUMP JUMPDEST POP POP POP JUMP JUMPDEST PUSH1 0x0 PUSH2 0x20E PUSH2 0x208 PUSH2 0x2DC JUMP JUMPDEST DUP4 PUSH2 0x304 JUMP JUMPDEST SWAP1 POP SWAP2 SWAP1 POP JUMP JUMPDEST PUSH1 0x0 DUP1 PUSH1 0x0 PUSH2 0x224 DUP6 DUP6 PUSH2 0x337 JUMP JUMPDEST SWAP2 POP SWAP2 POP PUSH2 0x231 DUP2 PUSH2 0x3BA JUMP JUMPDEST DUP2 SWAP3 POP POP POP SWAP3 SWAP2 POP POP JUMP JUMPDEST PUSH2 0x245 DUP5 PUSH2 0x58F JUMP JUMPDEST ISZERO PUSH2 0x285 JUMPI PUSH1 0x40 MLOAD PUSH32 0x8C379A000000000000000000000000000000000000000000000000000000000 DUP2 MSTORE PUSH1 0x4 ADD PUSH2 0x27C SWAP1 PUSH2 0xBCE JUMP JUMPDEST PUSH1 0x40 MLOAD DUP1 SWAP2 SUB SWAP1 REVERT JUMPDEST DUP3 DUP5 PUSH20 0xFFFFFFFFFFFFFFFFFFFFFFFFFFFFFFFFFFFFFFFF AND PUSH32 0x59517B44CC39B13E5E4AC25AEC4AD6ABC4A514FB5F15C477216D1ADE07CEF7C4 DUP5 DUP5 PUSH1 0x40 MLOAD PUSH2 0x2CE SWAP3 SWAP2 SWAP1 PUSH2 0xB2A JUMP JUMPDEST PUSH1 0x40 MLOAD DUP1 SWAP2 SUB SWAP1 LOG3 POP POP POP POP JUMP JUMPDEST PUSH1 0x0 PUSH32 0x0 SWAP1 POP SWAP1 JUMP JUMPDEST PUSH1 0x0 DUP3 DUP3 PUSH1 0x40 MLOAD PUSH1 0x20 ADD PUSH2 0x319 SWAP3 SWAP2 SWAP1 PUSH2 0xA52 JUMP JUMPDEST PUSH1 0x40 MLOAD PUSH1 0x20 DUP2 DUP4 SUB SUB DUP2 MSTORE SWAP1 PUSH1 0x40 MSTORE DUP1 MLOAD SWAP1 PUSH1 0x20 ADD KECCAK256 SWAP1 POP SWAP3 SWAP2 POP POP JUMP JUMPDEST PUSH1 0x0 DUP1 PUSH1 0x41 DUP4 MLOAD EQ ISZERO PUSH2 0x379 JUMPI PUSH1 0x0 DUP1 PUSH1 0x0 PUSH1 0x20 DUP7 ADD MLOAD SWAP3 POP PUSH1 0x40 DUP7 ADD MLOAD SWAP2 POP PUSH1 0x60 DUP7 ADD MLOAD PUSH1 0x0 BYTE SWAP1 POP PUSH2 0x36D DUP8 DUP3 DUP6 DUP6 PUSH2 0x5B2 JUMP JUMPDEST SWAP5 POP SWAP5 POP POP POP POP PUSH2 0x3B3 JUMP JUMPDEST PUSH1 0x40 DUP4 MLOAD EQ ISZERO PUSH2 0x3AA JUMPI PUSH1 0x0 DUP1 PUSH1 0x20 DUP6 ADD MLOAD SWAP2 POP PUSH1 0x40 DUP6 ADD MLOAD SWAP1 POP PUSH2 0x39F DUP7 DUP4 DUP4 PUSH2 0x6BF JUMP JUMPDEST SWAP4 POP SWAP4 POP POP POP PUSH2 0x3B3 JUMP JUMPDEST PUSH1 0x0 PUSH1 0x2 SWAP2 POP SWAP2 POP JUMPDEST SWAP3 POP SWAP3 SWAP1 POP JUMP JUMPDEST PUSH1 0x0 PUSH1 0x4 DUP2 GT ISZERO PUSH2 0x3CE JUMPI PUSH2 0x3CD PUSH2 0xD4C JUMP JUMPDEST JUMPDEST DUP2 PUSH1 0x4 DUP2 GT ISZERO PUSH2 0x3E1 JUMPI PUSH2 0x3E0 PUSH2 0xD4C JUMP JUMPDEST JUMPDEST EQ ISZERO PUSH2 0x3EC JUMPI PUSH2 0x58C JUMP JUMPDEST PUSH1 0x1 PUSH1 0x4 DUP2 GT ISZERO PUSH2 0x400 JUMPI PUSH2 0x3FF PUSH2 0xD4C JUMP JUMPDEST JUMPDEST DUP2 PUSH1 0x4 DUP2 GT ISZERO PUSH2 0x413 JUMPI PUSH2 0x412 PUSH2 0xD4C JUMP JUMPDEST JUMPDEST EQ ISZERO PUSH2 0x454 JUMPI PUSH1 0x40 MLOAD PUSH32 0x8C379A000000000000000000000000000000000000000000000000000000000 DUP2 MSTORE PUSH1 0x4 ADD PUSH2 0x44B SWAP1 PUSH2 0xB4E JUMP JUMPDEST PUSH1 0x40 MLOAD DUP1 SWAP2 SUB SWAP1 REVERT JUMPDEST PUSH1 0x2 PUSH1 0x4 DUP2 GT ISZERO PUSH2 0x468 JUMPI PUSH2 0x467 PUSH2 0xD4C JUMP JUMPDEST JUMPDEST DUP2 PUSH1 0x4 DUP2 GT ISZERO PUSH2 0x47B JUMPI PUSH2 0x47A PUSH2 0xD4C JUMP JUMPDEST JUMPDEST EQ ISZERO PUSH2 0x4BC JUMPI PUSH1 0x40 MLOAD PUSH32 0x8C379A000000000000000000000000000000000000000000000000000000000 DUP2 MSTORE PUSH1 0x4 ADD PUSH2 0x4B3 SWAP1 PUSH2 0xB6E JUMP JUMPDEST PUSH1 0x40 MLOAD DUP1 SWAP2 SUB SWAP1 REVERT JUMPDEST PUSH1 0x3 PUSH1 0x4 DUP2 GT ISZERO PUSH2 0x4D0 JUMPI PUSH2 0x4CF PUSH2 0xD4C JUMP JUMPDEST JUMPDEST DUP2 PUSH1 0x4 DUP2 GT ISZERO PUSH2 0x4E3 JUMPI PUSH2 0x4E2 PUSH2 0xD4C JUMP JUMPDEST JUMPDEST EQ ISZERO PUSH2 0x524 JUMPI PUSH1 0x40 MLOAD PUSH32 0x8C379A000000000000000000000000000000000000000000000000000000000 DUP2 MSTORE PUSH1 0x4 ADD PUSH2 0x51B SWAP1 PUSH2 0xBAE JUMP JUMPDEST PUSH1 0x40 MLOAD DUP1 SWAP2 SUB SWAP1 REVERT JUMPDEST PUSH1 0x4 DUP1 DUP2 GT ISZERO PUSH2 0x537 JUMPI PUSH2 0x536 PUSH2 0xD4C JUMP JUMPDEST JUMPDEST DUP2 PUSH1 0x4 DUP2 GT ISZERO PUSH2 0x54A JUMPI PUSH2 0x549 PUSH2 0xD4C JUMP JUMPDEST JUMPDEST EQ ISZERO PUSH2 0x58B JUMPI PUSH1 0x40 MLOAD PUSH32 0x8C379A000000000000000000000000000000000000000000000000000000000 DUP2 MSTORE PUSH1 0x4 ADD PUSH2 0x582 SWAP1 PUSH2 0xC0E JUMP JUMPDEST PUSH1 0x40 MLOAD DUP1 SWAP2 SUB SWAP1 REVERT JUMPDEST JUMPDEST POP JUMP JUMPDEST PUSH1 0x0 DUP1 DUP3 PUSH20 0xFFFFFFFFFFFFFFFFFFFFFFFFFFFFFFFFFFFFFFFF AND EXTCODESIZE GT SWAP1 POP SWAP2 SWAP1 POP JUMP JUMPDEST PUSH1 0x0 DUP1 PUSH32 0x7FFFFFFFFFFFFFFFFFFFFFFFFFFFFFFF5D576E7357A4501DDFE92F46681B20A0 DUP4 PUSH1 0x0 SHR GT ISZERO PUSH2 0x5ED JUMPI PUSH1 0x0 PUSH1 0x3 SWAP2 POP SWAP2 POP PUSH2 0x6B6 JUMP JUMPDEST PUSH1 0x1B DUP6 PUSH1 0xFF AND EQ ISZERO DUP1 ISZERO PUSH2 0x605 JUMPI POP PUSH1 0x1C DUP6 PUSH1 0xFF AND EQ ISZERO JUMPDEST ISZERO PUSH2 0x617 JUMPI PUSH1 0x0 PUSH1 0x4 SWAP2 POP SWAP2 POP PUSH2 0x6B6 JUMP JUMPDEST PUSH1 0x0 PUSH1 0x1 DUP8 DUP8 DUP8 DUP8 PUSH1 0x40 MLOAD PUSH1 0x0 DUP2 MSTORE PUSH1 0x20 ADD PUSH1 0x40 MSTORE PUSH1 0x40 MLOAD PUSH2 0x63C SWAP5 SWAP4 SWAP3 SWAP2 SWAP1 PUSH2 0xAE5 JUMP JUMPDEST PUSH1 0x20 PUSH1 0x40 MLOAD PUSH1 0x20 DUP2 SUB SWAP1 DUP1 DUP5 SUB SWAP1 DUP6 GAS STATICCALL ISZERO DUP1 ISZERO PUSH2 0x65E JUMPI RETURNDATASIZE PUSH1 0x0 DUP1 RETURNDATACOPY RETURNDATASIZE PUSH1 0x0 REVERT JUMPDEST POP POP POP PUSH1 0x20 PUSH1 0x40 MLOAD SUB MLOAD SWAP1 POP PUSH1 0x0 PUSH20 0xFFFFFFFFFFFFFFFFFFFFFFFFFFFFFFFFFFFFFFFF AND DUP2 PUSH20 0xFFFFFFFFFFFFFFFFFFFFFFFFFFFFFFFFFFFFFFFF AND EQ ISZERO PUSH2 0x6AD JUMPI PUSH1 0x0 PUSH1 0x1 SWAP3 POP SWAP3 POP POP PUSH2 0x6B6 JUMP JUMPDEST DUP1 PUSH1 0x0 SWAP3 POP SWAP3 POP POP JUMPDEST SWAP5 POP SWAP5 SWAP3 POP POP POP JUMP JUMPDEST PUSH1 0x0 DUP1 PUSH1 0x0 PUSH32 0x7FFFFFFFFFFFFFFFFFFFFFFFFFFFFFFFFFFFFFFFFFFFFFFFFFFFFFFFFFFFFFFF PUSH1 0x0 SHL DUP5 AND SWAP1 POP PUSH1 0x0 PUSH1 0x1B PUSH1 0xFF DUP7 PUSH1 0x0 SHR SWAP1 SHR PUSH2 0x702 SWAP2 SWAP1 PUSH2 0xC5B JUMP JUMPDEST SWAP1 POP PUSH2 0x710 DUP8 DUP3 DUP9 DUP6 PUSH2 0x5B2 JUMP JUMPDEST SWAP4 POP SWAP4 POP POP POP SWAP4 POP SWAP4 SWAP2 POP POP JUMP JUMPDEST PUSH1 0x0 DUP2 CALLDATALOAD SWAP1 POP PUSH2 0x72D DUP2 PUSH2 0xF39 JUMP JUMPDEST SWAP3 SWAP2 POP POP JUMP JUMPDEST PUSH1 0x0 DUP1 DUP4 PUSH1 0x1F DUP5 ADD SLT PUSH2 0x749 JUMPI PUSH2 0x748 PUSH2 0xD80 JUMP JUMPDEST JUMPDEST DUP3 CALLDATALOAD SWAP1 POP PUSH8 0xFFFFFFFFFFFFFFFF DUP2 GT ISZERO PUSH2 0x766 JUMPI PUSH2 0x765 PUSH2 0xD7B JUMP JUMPDEST JUMPDEST PUSH1 0x20 DUP4 ADD SWAP2 POP DUP4 PUSH1 0x1 DUP3 MUL DUP4 ADD GT ISZERO PUSH2 0x782 JUMPI PUSH2 0x781 PUSH2 0xD85 JUMP JUMPDEST JUMPDEST SWAP3 POP SWAP3 SWAP1 POP JUMP JUMPDEST PUSH1 0x0 DUP2 CALLDATALOAD SWAP1 POP PUSH2 0x798 DUP2 PUSH2 0xF50 JUMP JUMPDEST SWAP3 SWAP2 POP POP JUMP JUMPDEST PUSH1 0x0 DUP1 PUSH1 0x0 DUP1 PUSH1 0x0 DUP1 PUSH1 0x0 PUSH1 0xA0 DUP9 DUP11 SUB SLT ISZERO PUSH2 0x7BD JUMPI PUSH2 0x7BC PUSH2 0xD8F JUMP JUMPDEST JUMPDEST PUSH1 0x0 PUSH2 0x7CB DUP11 DUP3 DUP12 ADD PUSH2 0x71E JUMP JUMPDEST SWAP8 POP POP PUSH1 0x20 PUSH2 0x7DC DUP11 DUP3 DUP12 ADD PUSH2 0x789 JUMP JUMPDEST SWAP7 POP POP PUSH1 0x40 PUSH2 0x7ED DUP11 DUP3 DUP12 ADD PUSH2 0x789 JUMP JUMPDEST SWAP6 POP POP PUSH1 0x60 DUP9 ADD CALLDATALOAD PUSH8 0xFFFFFFFFFFFFFFFF DUP2 GT ISZERO PUSH2 0x80E JUMPI PUSH2 0x80D PUSH2 0xD8A JUMP JUMPDEST JUMPDEST PUSH2 0x81A DUP11 DUP3 DUP12 ADD PUSH2 0x733 JUMP JUMPDEST SWAP5 POP SWAP5 POP POP PUSH1 0x80 DUP9 ADD CALLDATALOAD PUSH8 0xFFFFFFFFFFFFFFFF DUP2 GT ISZERO PUSH2 0x83D JUMPI PUSH2 0x83C PUSH2 0xD8A JUMP JUMPDEST JUMPDEST PUSH2 0x849 DUP11 DUP3 DUP12 ADD PUSH2 0x733 JUMP JUMPDEST SWAP3 POP SWAP3 POP POP SWAP3 SWAP6 SWAP9 SWAP2 SWAP5 SWAP8 POP SWAP3 SWAP6 POP JUMP JUMPDEST PUSH1 0x0 DUP1 PUSH1 0x0 PUSH1 0x40 DUP5 DUP7 SUB SLT ISZERO PUSH2 0x873 JUMPI PUSH2 0x872 PUSH2 0xD8F JUMP JUMPDEST JUMPDEST PUSH1 0x0 PUSH2 0x881 DUP7 DUP3 DUP8 ADD PUSH2 0x789 JUMP JUMPDEST SWAP4 POP POP PUSH1 0x20 DUP5 ADD CALLDATALOAD PUSH8 0xFFFFFFFFFFFFFFFF DUP2 GT ISZERO PUSH2 0x8A2 JUMPI PUSH2 0x8A1 PUSH2 0xD8A JUMP JUMPDEST JUMPDEST PUSH2 0x8AE DUP7 DUP3 DUP8 ADD PUSH2 0x733 JUMP JUMPDEST SWAP3 POP SWAP3 POP POP SWAP3 POP SWAP3 POP SWAP3 JUMP JUMPDEST PUSH2 0x8C3 DUP2 PUSH2 0xCB1 JUMP JUMPDEST DUP3 MSTORE POP POP JUMP JUMPDEST PUSH2 0x8D2 DUP2 PUSH2 0xCC3 JUMP JUMPDEST DUP3 MSTORE POP POP JUMP JUMPDEST PUSH2 0x8E9 PUSH2 0x8E4 DUP3 PUSH2 0xCC3 JUMP JUMPDEST PUSH2 0xD13 JUMP JUMPDEST DUP3 MSTORE POP POP JUMP JUMPDEST PUSH1 0x0 PUSH2 0x8FB DUP4 DUP6 PUSH2 0xC2E JUMP JUMPDEST SWAP4 POP PUSH2 0x908 DUP4 DUP6 DUP5 PUSH2 0xD04 JUMP JUMPDEST PUSH2 0x911 DUP4 PUSH2 0xD94 JUMP JUMPDEST DUP5 ADD SWAP1 POP SWAP4 SWAP3 POP POP POP JUMP JUMPDEST PUSH1 0x0 PUSH2 0x929 PUSH1 0x18 DUP4 PUSH2 0xC3F JUMP JUMPDEST SWAP2 POP PUSH2 0x934 DUP3 PUSH2 0xDA5 JUMP JUMPDEST PUSH1 0x20 DUP3 ADD SWAP1 POP SWAP2 SWAP1 POP JUMP JUMPDEST PUSH1 0x0 PUSH2 0x94C PUSH1 0x1F DUP4 PUSH2 0xC3F JUMP JUMPDEST SWAP2 POP PUSH2 0x957 DUP3 PUSH2 0xDCE JUMP JUMPDEST PUSH1 0x20 DUP3 ADD SWAP1 POP SWAP2 SWAP1 POP JUMP JUMPDEST PUSH1 0x0 PUSH2 0x96F PUSH1 0xC DUP4 PUSH2 0xC3F JUMP JUMPDEST SWAP2 POP PUSH2 0x97A DUP3 PUSH2 0xDF7 JUMP JUMPDEST PUSH1 0x20 DUP3 ADD SWAP1 POP SWAP2 SWAP1 POP JUMP JUMPDEST PUSH1 0x0 PUSH2 0x992 PUSH1 0x2 DUP4 PUSH2 0xC50 JUMP JUMPDEST SWAP2 POP PUSH2 0x99D DUP3 PUSH2 0xE20 JUMP JUMPDEST PUSH1 0x2 DUP3 ADD SWAP1 POP SWAP2 SWAP1 POP JUMP JUMPDEST PUSH1 0x0 PUSH2 0x9B5 PUSH1 0x22 DUP4 PUSH2 0xC3F JUMP JUMPDEST SWAP2 POP PUSH2 0x9C0 DUP3 PUSH2 0xE49 JUMP JUMPDEST PUSH1 0x40 DUP3 ADD SWAP1 POP SWAP2 SWAP1 POP JUMP JUMPDEST PUSH1 0x0 PUSH2 0x9D8 PUSH1 0x12 DUP4 PUSH2 0xC3F JUMP JUMPDEST SWAP2 POP PUSH2 0x9E3 DUP3 PUSH2 0xE98 JUMP JUMPDEST PUSH1 0x20 DUP3 ADD SWAP1 POP SWAP2 SWAP1 POP JUMP JUMPDEST PUSH1 0x0 PUSH2 0x9FB PUSH1 0xD DUP4 PUSH2 0xC3F JUMP JUMPDEST SWAP2 POP PUSH2 0xA06 DUP3 PUSH2 0xEC1 JUMP JUMPDEST PUSH1 0x20 DUP3 ADD SWAP1 POP SWAP2 SWAP1 POP JUMP JUMPDEST PUSH1 0x0 PUSH2 0xA1E PUSH1 0x22 DUP4 PUSH2 0xC3F JUMP JUMPDEST SWAP2 POP PUSH2 0xA29 DUP3 PUSH2 0xEEA JUMP JUMPDEST PUSH1 0x40 DUP3 ADD SWAP1 POP SWAP2 SWAP1 POP JUMP JUMPDEST PUSH2 0xA3D DUP2 PUSH2 0xCED JUMP JUMPDEST DUP3 MSTORE POP POP JUMP JUMPDEST PUSH2 0xA4C DUP2 PUSH2 0xCF7 JUMP JUMPDEST DUP3 MSTORE POP POP JUMP JUMPDEST PUSH1 0x0 PUSH2 0xA5D DUP3 PUSH2 0x985 JUMP JUMPDEST SWAP2 POP PUSH2 0xA69 DUP3 DUP6 PUSH2 0x8D8 JUMP JUMPDEST PUSH1 0x20 DUP3 ADD SWAP2 POP PUSH2 0xA79 DUP3 DUP5 PUSH2 0x8D8 JUMP JUMPDEST PUSH1 0x20 DUP3 ADD SWAP2 POP DUP2 SWAP1 POP SWAP4 SWAP3 POP POP POP JUMP JUMPDEST PUSH1 0x0 PUSH1 0xA0 DUP3 ADD SWAP1 POP PUSH2 0xA9E PUSH1 0x0 DUP4 ADD DUP10 PUSH2 0x8C9 JUMP JUMPDEST PUSH2 0xAAB PUSH1 0x20 DUP4 ADD DUP9 PUSH2 0x8BA JUMP JUMPDEST PUSH2 0xAB8 PUSH1 0x40 DUP4 ADD DUP8 PUSH2 0xA34 JUMP JUMPDEST PUSH2 0xAC5 PUSH1 0x60 DUP4 ADD DUP7 PUSH2 0xA34 JUMP JUMPDEST DUP2 DUP2 SUB PUSH1 0x80 DUP4 ADD MSTORE PUSH2 0xAD8 DUP2 DUP5 DUP7 PUSH2 0x8EF JUMP JUMPDEST SWAP1 POP SWAP8 SWAP7 POP POP POP POP POP POP POP JUMP JUMPDEST PUSH1 0x0 PUSH1 0x80 DUP3 ADD SWAP1 POP PUSH2 0xAFA PUSH1 0x0 DUP4 ADD DUP8 PUSH2 0x8C9 JUMP JUMPDEST PUSH2 0xB07 PUSH1 0x20 DUP4 ADD DUP7 PUSH2 0xA43 JUMP JUMPDEST PUSH2 0xB14 PUSH1 0x40 DUP4 ADD DUP6 PUSH2 0x8C9 JUMP JUMPDEST PUSH2 0xB21 PUSH1 0x60 DUP4 ADD DUP5 PUSH2 0x8C9 JUMP JUMPDEST SWAP6 SWAP5 POP POP POP POP POP JUMP JUMPDEST PUSH1 0x0 PUSH1 0x20 DUP3 ADD SWAP1 POP DUP2 DUP2 SUB PUSH1 0x0 DUP4 ADD MSTORE PUSH2 0xB45 DUP2 DUP5 DUP7 PUSH2 0x8EF JUMP JUMPDEST SWAP1 POP SWAP4 SWAP3 POP POP POP JUMP JUMPDEST PUSH1 0x0 PUSH1 0x20 DUP3 ADD SWAP1 POP DUP2 DUP2 SUB PUSH1 0x0 DUP4 ADD MSTORE PUSH2 0xB67 DUP2 PUSH2 0x91C JUMP JUMPDEST SWAP1 POP SWAP2 SWAP1 POP JUMP JUMPDEST PUSH1 0x0 PUSH1 0x20 DUP3 ADD SWAP1 POP DUP2 DUP2 SUB PUSH1 0x0 DUP4 ADD MSTORE PUSH2 0xB87 DUP2 PUSH2 0x93F JUMP JUMPDEST SWAP1 POP SWAP2 SWAP1 POP JUMP JUMPDEST PUSH1 0x0 PUSH1 0x20 DUP3 ADD SWAP1 POP DUP2 DUP2 SUB PUSH1 0x0 DUP4 ADD MSTORE PUSH2 0xBA7 DUP2 PUSH2 0x962 JUMP JUMPDEST SWAP1 POP SWAP2 SWAP1 POP JUMP JUMPDEST PUSH1 0x0 PUSH1 0x20 DUP3 ADD SWAP1 POP DUP2 DUP2 SUB PUSH1 0x0 DUP4 ADD MSTORE PUSH2 0xBC7 DUP2 PUSH2 0x9A8 JUMP JUMPDEST SWAP1 POP SWAP2 SWAP1 POP JUMP JUMPDEST PUSH1 0x0 PUSH1 0x20 DUP3 ADD SWAP1 POP DUP2 DUP2 SUB PUSH1 0x0 DUP4 ADD MSTORE PUSH2 0xBE7 DUP2 PUSH2 0x9CB JUMP JUMPDEST SWAP1 POP SWAP2 SWAP1 POP JUMP JUMPDEST PUSH1 0x0 PUSH1 0x20 DUP3 ADD SWAP1 POP DUP2 DUP2 SUB PUSH1 0x0 DUP4 ADD MSTORE PUSH2 0xC07 DUP2 PUSH2 0x9EE JUMP JUMPDEST SWAP1 POP SWAP2 SWAP1 POP JUMP JUMPDEST PUSH1 0x0 PUSH1 0x20 DUP3 ADD SWAP1 POP DUP2 DUP2 SUB PUSH1 0x0 DUP4 ADD MSTORE PUSH2 0xC27 DUP2 PUSH2 0xA11 JUMP JUMPDEST SWAP1 POP SWAP2 SWAP1 POP JUMP JUMPDEST PUSH1 0x0 DUP3 DUP3 MSTORE PUSH1 0x20 DUP3 ADD SWAP1 POP SWAP3 SWAP2 POP POP JUMP JUMPDEST PUSH1 0x0 DUP3 DUP3 MSTORE PUSH1 0x20 DUP3 ADD SWAP1 POP SWAP3 SWAP2 POP POP JUMP JUMPDEST PUSH1 0x0 DUP2 SWAP1 POP SWAP3 SWAP2 POP POP JUMP JUMPDEST PUSH1 0x0 PUSH2 0xC66 DUP3 PUSH2 0xCED JUMP JUMPDEST SWAP2 POP PUSH2 0xC71 DUP4 PUSH2 0xCED JUMP JUMPDEST SWAP3 POP DUP3 PUSH32 0xFFFFFFFFFFFFFFFFFFFFFFFFFFFFFFFFFFFFFFFFFFFFFFFFFFFFFFFFFFFFFFFF SUB DUP3 GT ISZERO PUSH2 0xCA6 JUMPI PUSH2 0xCA5 PUSH2 0xD1D JUMP JUMPDEST JUMPDEST DUP3 DUP3 ADD SWAP1 POP SWAP3 SWAP2 POP POP JUMP JUMPDEST PUSH1 0x0 PUSH2 0xCBC DUP3 PUSH2 0xCCD JUMP JUMPDEST SWAP1 POP SWAP2 SWAP1 POP JUMP JUMPDEST PUSH1 0x0 DUP2 SWAP1 POP SWAP2 SWAP1 POP JUMP JUMPDEST PUSH1 0x0 PUSH20 0xFFFFFFFFFFFFFFFFFFFFFFFFFFFFFFFFFFFFFFFF DUP3 AND SWAP1 POP SWAP2 SWAP1 POP JUMP JUMPDEST PUSH1 0x0 DUP2 SWAP1 POP SWAP2 SWAP1 POP JUMP JUMPDEST PUSH1 0x0 PUSH1 0xFF DUP3 AND SWAP1 POP SWAP2 SWAP1 POP JUMP JUMPDEST DUP3 DUP2 DUP4 CALLDATACOPY PUSH1 0x0 DUP4 DUP4 ADD MSTORE POP POP POP JUMP JUMPDEST PUSH1 0x0 DUP2 SWAP1 POP SWAP2 SWAP1 POP JUMP JUMPDEST PUSH32 0x4E487B7100000000000000000000000000000000000000000000000000000000 PUSH1 0x0 MSTORE PUSH1 0x11 PUSH1 0x4 MSTORE PUSH1 0x24 PUSH1 0x0 REVERT JUMPDEST PUSH32 0x4E487B7100000000000000000000000000000000000000000000000000000000 PUSH1 0x0 MSTORE PUSH1 0x21 PUSH1 0x4 MSTORE PUSH1 0x24 PUSH1 0x0 REVERT JUMPDEST PUSH1 0x0 DUP1 REVERT JUMPDEST PUSH1 0x0 DUP1 REVERT JUMPDEST PUSH1 0x0 DUP1 REVERT JUMPDEST PUSH1 0x0 DUP1 REVERT JUMPDEST PUSH1 0x0 DUP1 REVERT JUMPDEST PUSH1 0x0 PUSH1 0x1F NOT PUSH1 0x1F DUP4 ADD AND SWAP1 POP SWAP2 SWAP1 POP JUMP JUMPDEST PUSH32 0x45434453413A20696E76616C6964207369676E61747572650000000000000000 PUSH1 0x0 DUP3 ADD MSTORE POP JUMP JUMPDEST PUSH32 0x45434453413A20696E76616C6964207369676E6174757265206C656E67746800 PUSH1 0x0 DUP3 ADD MSTORE POP JUMP JUMPDEST PUSH32 0x4558505F444541444C494E450000000000000000000000000000000000000000 PUSH1 0x0 DUP3 ADD MSTORE POP JUMP JUMPDEST PUSH32 0x1901000000000000000000000000000000000000000000000000000000000000 PUSH1 0x0 DUP3 ADD MSTORE POP JUMP JUMPDEST PUSH32 0x45434453413A20696E76616C6964207369676E6174757265202773272076616C PUSH1 0x0 DUP3 ADD MSTORE PUSH32 0x7565000000000000000000000000000000000000000000000000000000000000 PUSH1 0x20 DUP3 ADD MSTORE POP JUMP JUMPDEST PUSH32 0x494E565F4E4F545F415F434F4E54524143540000000000000000000000000000 PUSH1 0x0 DUP3 ADD MSTORE POP JUMP JUMPDEST PUSH32 0x494E565F5349474E415455524500000000000000000000000000000000000000 PUSH1 0x0 DUP3 ADD MSTORE POP JUMP JUMPDEST PUSH32 0x45434453413A20696E76616C6964207369676E6174757265202776272076616C PUSH1 0x0 DUP3 ADD MSTORE PUSH32 0x7565000000000000000000000000000000000000000000000000000000000000 PUSH1 0x20 DUP3 ADD MSTORE POP JUMP JUMPDEST PUSH2 0xF42 DUP2 PUSH2 0xCB1 JUMP JUMPDEST DUP2 EQ PUSH2 0xF4D JUMPI PUSH1 0x0 DUP1 REVERT JUMPDEST POP JUMP JUMPDEST PUSH2 0xF59 DUP2 PUSH2 0xCED JUMP JUMPDEST DUP2 EQ PUSH2 0xF64 JUMPI PUSH1 0x0 DUP1 REVERT JUMPDEST POP JUMP INVALID LOG2 PUSH5 0x6970667358 0x22 SLT KECCAK256 0xDC 0x26 0xCC TIMESTAMP KECCAK256 SLOAD CALLDATASIZE 0xC 0xA7 0x5C 0x26 CREATE2 DIFFICULTY DUP2 DUP1 0x24 0xA7 0xE4 CALLDATASIZE DUP13 0xC7 0xA7 0xFC PUSH25 0x5C662CB55822285964736F6C63430008070033000000000000 "
		},
		"gasEstimates": {
			"creation": {
				"codeDepositCost": "799400",
				"executionCost": "infinite",
				"totalCost": "infinite"
			},
			"external": {
				"enqueue(uint256,bytes)": "infinite",
				"enqueueBySig(address,uint256,uint256,bytes,bytes)": "infinite"
			},
			"internal": {
				"_enqueue(address,uint256,bytes calldata)": "infinite"
			}
		},
		"methodIdentifiers": {
			"enqueue(uint256,bytes)": "e7d41c53",
			"enqueueBySig(address,uint256,uint256,bytes,bytes)": "93228d70"
		}
	},
	"abi": [
		{
			"inputs": [],
			"stateMutability": "nonpayable",
			"type": "constructor"
		},
		{
			"anonymous": false,
			"inputs": [
				{
					"indexed": true,
					"internalType": "address",
					"name": "sender",
					"type": "address"
				},
				{
					"indexed": true,
					"internalType": "uint256",
					"name": "job",
					"type": "uint256"
				},
				{
					"indexed": false,
					"internalType": "bytes",
					"name": "data",
					"type": "bytes"
				}
			],
			"name": "JobQueued",
			"type": "event"
		},
		{
			"inputs": [
				{
					"internalType": "uint256",
					"name": "job",
					"type": "uint256"
				},
				{
					"internalType": "bytes",
					"name": "data",
					"type": "bytes"
				}
			],
			"name": "enqueue",
			"outputs": [],
			"stateMutability": "nonpayable",
			"type": "function"
		},
		{
			"inputs": [
				{
					"internalType": "address",
					"name": "sender",
					"type": "address"
				},
				{
					"internalType": "uint256",
					"name": "job",
					"type": "uint256"
				},
				{
					"internalType": "uint256",
					"name": "deadline",
					"type": "uint256"
				},
				{
					"internalType": "bytes",
					"name": "data",
					"type": "bytes"
				},
				{
					"internalType": "bytes",
					"name": "signature",
					"type": "bytes"
				}
			],
			"name": "enqueueBySig",
			"outputs": [],
			"stateMutability": "nonpayable",
			"type": "function"
		}
	]
}